S0450000433A5C55736572735C544B6F727A5C4465736B746F705C434D5053435C434D50454E203437325C636D70656E3437326877375C62696E5C50726F6A6563742E61627397
S1233100CF310086FF5A0386005A01860C5ACBCC00015CC8CE34E9163281CE300B793000DA
S12331207930011632A9CE300B1632A0810027F9810D27031632916A30723000F63000C1AA
S12331400A182200FA810D26E0F63000C104182500ED860D163291860A1632911632B7B6FA
S123316030268101182700D7CE300569006901CD3019CE301DB630037A3002163342B63050
S1233180268101182700B87D3019CE300569006901CD301BCE3021B630047A300216334298
S12331A0B630268101182700967D301BB630258100270E810127158102273181032740207B
S12331C07EFC3019F3301B7C30052043FC3019BC301B2D08B3301B7C30052033FC301BB359
S12331E030197C300586017A30272023FC3019FD301B13256B8D000026667C30052010FC10
S12332003019FE301B8E0000273518107E3005CE34FB163281FC30051633D5B630278101AF
S12332202606CE34FD163281CE3015163281860D163291860A1632917930271820FED58684
S12332400D163291860A163291CE34FF163281860D163291860A1632917930261820FEB4C3
S1233260860D163291860A163291CE351C163281860D163291860A1632917930261820FEB3
S1233280933634A6308100270516329120F530323D4FCC80FC5ACF3D810D27031632913D52
S12332A04FCC200396CF3D873DC60AC100270786006A305320F53DCE34F2163281CE300B1C
S12332C0CD301DC7A6301632988139226F81302509C10422676A705220EAC104225ED72762
S12332E05B7B3003C76B40812B260786007A3025201F812D260786017A30252014812A26AC
S12333000786027A30252009812F263086037A3025CD3021A630163298810D27118139224E
S12333201B81302517C10422136A705220E6C104220AD727077B3004C76B403D86017A30D0
S1233340263DA600F63002C104263D73300280304848487A3007A600803048484848BB30D1
S1233360077A3007EC00830030595959595959595959597C3009FC3009B330077C3005CC27
S1233380000008A600F63002C10326147330028030C66412F330057C300508A600F6300215
S12333A0C10226147330028030C60A12F330057C300508A600F63002C10126137330028006
S12333C030C60112F330057C300508FD30053D86017A30263D7930018C0000182700FECDBC
S12333E03015CE000A18106B70723001B754D726F1B630018105271E8104275F810318278D
S123340000968102182700B6CE3015A6008B306A3086006A303DCE3015A630080808E60048
S12334206A00CE30156B0008A63008E6006A00CE3015086B00CE3015A6008B306A30A60030
S12334408B306A30A6008B306A30A6008B306A30A6008B306A3086006A303DCE3015A630DC
S12334600808E6006A00CE30156B0008A630E6006A00CE3015086B00CE3015A6008B306AD8
S123348030A6008B306A30A6008B306A30A6008B306A3086006A303DCE3015A63008E600D3
S12334A06A00CE30156B00A6008B306A30A6008B306A30A6008B306A3086006A303DCE30D4
S12334C015A630E6006A00CE30156B00A6008B306A30A6008B306A3086006A303DCE3015C9
S12334E086306A3086006A303D4563616C633E2020002020202020202020003D002D00203B
S123350020202020202020496E76616C696420696E70757420666F726D6174002020202087
S1163520202020204F766572666C6F77206572726F720076
S9030000FC
